:100200000C949C010C94C4010C94C4010C94C40182
:100210000C94C4010C94C4010C94C4010C94C4014A
:100220000C94C4010C94C4010C94C4010C94C4013A
:100230000C94C4010C94C4010C94C4010C94C4012A
:100240000C94C4010C94C4010C94C4010C94C4011A
:100250000C94C4010C94C4010C94C4010C94C4010A
:100260000C94C4010C94C4010C94C4010C94C401FA
:100270000C94C4010C94C4010C94C4010C94C401EA
:100280000C94C4010C94C4010C94C4010C94C401DA
:100290000C94AE200C9438210C9412210C94C401BF
:1002A000546F6F44656570004E6F4D656D6F727968
:1002B00000496E76616C6964496E70757400496EB0
:1002C000636F6D706C657465496E70757400456D13
:1002D000707479496E707574004F6B00D902CE024C
:1002E000BE02B102A802A002646573657269616C06
:1002F000697A654A736F6E2829206661696C656446
:100300003A2000CDCCCC3D0AD7233C17B7D1387763
:10031000CC2B329595E6241FB14F0A0000204100F6
:1003200000C84200401C4620BCBE4CCA1B0E5AAE40
:10033000C59D74008121092711241FBECFEFCDBFB9
:10034000DFE3DEBF29E2AAE2B8E201C01D92A73CCA
:10035000B207E1F718E2A0E0B8E2E1E2F9E502C095
:1003600005900D92AA32B107D9F711E0CBE9D1E09F
:1003700004C02197FE010E944B29CA39D107C9F751
:100380000E943A220C94492B0C940001CF93DF93E6
:10039000EC0188819981DC01ED91FC910190F08163
:1003A000E02D64E270E00995009741F02FE1FC0137
:1003B000238321E02283DF91CF91089521E02A83D6
:1003C000FACF00006093C4088091C30887FFFCCF78
:1003D0008091C408089500008093C4088091C308E8
:1003E00087FFFCCF8091C4080895FC01548945899A
:1003F000252F30E0842F90E0821B930B541710F0D0
:10040000CF96089501970895FC01928983899817E2
:1004100061F0A389AE0FBF2FB11D59968C919389BE
:100420009F5F9F73938B90E008958FEF9FEF0895E8
:10043000FC0192898389981731F08389E80FF11DB7
:10044000818D90E008958FEF9FEF0895FC019289D0
:100450002389892F90E0805C9F4F821B91098F73C5
:1004600099270895CF93DF93EC01E881F981068005
:10047000F781E02D0995EC85FD8586818F73868354
:10048000EC85FD8585818F7585838B898A8B198A9B
:10049000DF91CF910895CF93DF93FC0194898589F3
:1004A000C485D585981306C08D818F7D8D83DF919E
:1004B000CF910895A589AE0FBF2FB11DA75ABF4F89
:1004C0002C91858990E001968F739927858B80E424
:1004D0008C83A485B58512962C939489858998136D
:1004E000E6CFA485B58515968C9115978F7D1596C9
:1004F0008C9387898823D9F2808D80931301178A82
:10050000D6CFDC011C96ED91FC910FB607FE03C01F
:10051000258125FD04C0248125FD0C944B020895FE
:10052000EF92FF920F931F93CF93DF93EC0181E043
:10053000898B9C898D8998131CC0AC85BD851496C8
:100540008C91149785FF15C012966C93AC85BD8570
:1005500080E414968C93EC85FD8585818F7D858361
:1005600081E090E0DF91CF911F910F91FF90EF908C
:1005700008958091110180FF08C080911301888F38
:100580008E898093130181E08F8BF62E0C8910E009
:100590000F5F1F4F0F731127E02E8D898E1104C03E
:1005A000CE010E948102F9CFEC89EC0FFD2FF11DE5
:1005B000E75AFF4FF0820C8BEC85FD8585818062C8
:1005C000CECF0F931F93CF93DF938C01D0E0C0E089
:1005D000F801EC0FFD1F6491662341F088E698E274
:1005E0000E949002892B11F02196F2CFCE01DF916B
:1005F000CF911F910F910895CF93DF93FC01218933
:100600002223C9F0EC018091110180FF08C0809184
:100610001301808F86898093130181E0878BEC859D
:10062000FD85858185FD03C0848186FD04C0CE01E2
:100630000E948102F4CFDF91CF910895CF93DF9391
:1006400090E0FC01EF5CF84620812F3F71F0FC0147
:10065000E85FF846A08130E2A39FD0011124BC5F7F
:100660006130710529F411962C93DF91CF91089593
:1006700081529946EC01E881EF3F89F0CD01409627
:10068000E80FF92FF11D9FB7F89412962C938081F3
:100690006230710539F4886080839FBFE6CFF0E057
:1006A000E0E0F1CF877FF8CF282F30E0F901EA545E
:1006B000F946E081EE2309F1E13021F0F0F0E63077
:1006C00098F008954091010A21523946F90120819C
:1006D0002C5F81E090E001C0880F2A95EAF78095B1
:1006E00084238093010A089580E1E89FF00111249A
:1006F000E05AF54F81818F7E81830895FF920F9399
:100700001F93CF93DF93082F10E0F801EF5CF846BA
:10071000F0809FEFF916A1F0EB01893210F40E94EE
:100720005403F801E85FF846E08180E2E89FF001B9
:100730001124FC5F80818F2159F0CD2B39F4F68292
:10074000DF91CF911F910F91FF900895F582F8CF1F
:10075000D801A152B9468C91309771F08F3F61F06A
:100760007096E80FF11D9FB7F8948081CD2B39F476
:10077000877F80839FBFE4CFF0E0E0E0F4CF886024
:10078000F8CF0F931F93CF93082F10E0F801EF5C81
:10079000F846C081CF3FB9F0893210F40E9454036B
:1007A000F801E85FF846E08180E2E89FF00111245B
:1007B000FC5F8085C82381E090E009F480E0CF9160
:1007C0001F910F91089580E090E0F9CF893210F4E5
:1007D0000C947E030895893210F40C941E0308953E
:1007E000CF92DF92EF92FF920F931F93CF93DF93FD
:1007F000EC016A017B01022F8989882339F0E881A5
:10080000F9810288F389E02DCE01099598898091BC
:10081000E205892B8093E2051FB7F89460E070E24F
:1008200081EA97E0A70196010E94D92869017A011F
:100830008FEFC81AD80AE80AF80AF694E794D79412
:10084000C794EC85FD8586818D7F8683EC85FD854B
:1008500086818683198AA09123110A2E000CBB0B76
:10086000A70196010E941A2920E034E040E050E000
:100870000E94FB28EC85FD85C20ED31EE41EF51EEA
:10088000C086D186EC85FD850783EC85FD85868154
:10089000806C8683EC85FD858581806885838E8567
:1008A00062E070E00E94EB038F8561E070E00E94DF
:1008B000E6038F8561E070E00E94EB031FBFDF91CC
:1008C000CF911F910F91FF90EF90DF90CF900895FF
:1008D000CF93DF938FB7F89420913B2830913C2839
:1008E00040913D2850913E28E091BA0A9091B60A75
:1008F00090FF06C02F5F3F4F4F4F5F4FE091BA0A06
:100900008FBFA0913928B0913A28C0913728D09153
:1009100038280E947A28EC9F9001ED9F300D112419
:10092000620F731F811D911DDF91CF9108958F92EA
:100930009F92AF92BF92CF92DF92EF92FF924B01C4
:100940005C010E9468046B017C01A8EEB3E0A50184
:1009500094010E947A28C60ED71EE81EF91EC616FC
:10096000D706E806F90618F40E946804F8CF0E943A
:1009700068046C157D058E059F05C8F3FF90EF9008
:10098000DF90CF90BF90AF909F908F9008952FB73A
:10099000F894609133287091342880913528909193
:1009A00036282FBF0895DC01ED91FC910190F08174
:1009B000E02D0994AF92BF92CF92DF92EF92FF9217
:1009C0000F931F93CF93DF936C017B018B01040F77
:1009D000151FEB015E01AE18BF08C017D10759F013
:1009E0006991D601ED91FC910190F081E02DC60155
:1009F0000995892B79F7C501DF91CF911F910F914F
:100A0000FF90EF90DF90CF90BF90AF90089581E07E
:100A10000895BC016E5F7F4FDC01ED91FC91019068
:100A2000F081E02D40E0099591E0811190E0892F5F
:100A30000895CF92DF92EF92FF92CF93C82F0E943A
:100A4000C7046B017C01809102288932C8F40E949E
:100A5000C103892BA9F0CC23B1F30E94C7046C1900
:100A60007D098E099F09603177428105910558F70C
:100A7000E0914329F0914429309729F30995E3CF78
:100A8000CF91FF90EF90DF90CF900895CF93DF93B9
:100A90001F92CDB7DEB7898389810F90DF91CF9107
:100AA0000C94EB01CF93DF93D82FC62F80EE0E94DA
:100AB00046058D2F0E9446058C2F0E944605C111C8
:100AC00005C08EEEDF91CF910C944605DF91CF915A
:100AD0000895DF92EF92FF920F931F93CF93DF93CE
:100AE000D82EE92E8B01F42E812F0E944605802FEF
:100AF0000E944605CD2DDE2D0C0F1D1FC017D107FE
:100B000021F089910E944605F9CF81E0F8120AC0D0
:100B10008EEEDF91CF911F910F91FF90EF90DF90BC
:100B20000C944605DF91CF911F910F91FF90EF90AC
:100B3000DF900895DF92EF92FF920F931F93CF9370
:100B4000DF937C01C62FD42E862F0E944605870195
:100B5000D0E0C8018E199F098C179D0734F4F80165
:100B600081918F010E944605F4CFF1E0DF120AC0A7
:100B70008EEEDF91CF911F910F91FF90EF90DF905C
:100B80000C944605DF91CF911F910F91FF90EF904C
:100B9000DF900895CF93DF93EC018FEF0E9446051D
:100BA0008883DF91CF910895CF93DF931F92CDB7C4
:100BB000DEB71982CE0101960E94CA0589810F9085
:100BC000DF91CF910895CF93DF93C9EED3E00E94D8
:100BD000D4058F3E69F0219711F0803EC1F721E0E6
:100BE00090E0803E09F020E0822FDF91CF910895C0
:100BF0008FEF9FEFFACFCF92DF92EF92FF920F939A
:100C00001F93CF93DF931F92CDB7DEB7182F6B01E1
:100C10007A0119820E94E305892B61F490E080E05B
:100C20000F90DF91CF911F910F91FF90EF90DF9088
:100C3000CF900895CE0101960E94CA05106889815F
:100C40001813ECCFCE0101960E94CA05898181302C
:100C500029F78FEF0E944605F701808310E000E03E
:100C6000F70180818017110649F044F0C601800F1A
:100C7000911F0E94CA050F5F1F4FF2CFCE01019650
:100C80000E94CA0581E090E0CBCF21E0FC01848581
:100C90008F3F09F420E0822F08950895FC016787B3
:100CA0000895CF93DF931F92CDB7DEB76983DC0140
:100CB000ED91FC910280F381E02D41E050E0BE0116
:100CC0006F5F7F4F09950F90DF91CF91089590E06E
:100CD00080E008950895EF92FF920F931F93CF93B2
:100CE000DF937C01EB018B01040F151FC017D107A7
:100CF00059F0D701ED91FC910480F581E02D6881D8
:100D0000C70109958993F2CFDF91CF911F910F9180
:100D1000FF90EF9008950F931F93CF93DF93EC0113
:100D20008B018091C008E881F9810480F581E02D74
:100D300086FD13C0612FCE010995182FE881F98136
:100D40000480F581E02D602FCE010995082FC801A0
:100D5000DF91CF911F910F910895CE010995082F32
:100D6000E881F9810480F581E02D612FCE0109959C
:100D7000182FEDCF8F929F92AF92BF92CF92DF92BA
:100D8000EF92FF920F931F93CF93DF93FC01808527
:100D9000882319F081FF0EC07894DF91CF911F91C5
:100DA0000F91FF90EF90DF90CF90BF90AF909F900A
:100DB0008F90089580FFF1CF82849384A484B584BA
:100DC000C12CD12C760110E09401A501B601C70118
:100DD000A0E00E943F2999F1217030E040E050E00E
:100DE00060E070E080E090E00E943F29D9F0D0E020
:100DF000C0E0103370F4C12FC695C695C69580E249
:100E0000C89FE0011124C05FDB4F812F8770C80F9E
:100E1000D11DCF01810F911DDC0152968C919881DB
:100E2000892B88839401A501B601C70101E00E94C6
:100E3000242949015A016B017C011F5FC5CF8684BB
:100E40009784A088B188C12CD12C760110E294013E
:100E5000A501B601C701A0E00E943F2909F49DCF7A
:100E6000217030E040E050E060E070E080E090E031
:100E70000E943F29D9F0D0E0C0E0103370F4C12FB8
:100E8000C695C695C695B0E2CB9FE0011124C05F20
:100E9000DB4F812F8770C80FD11DCF01810F911DAE
:100EA000DC0152968C919881892B88839401A5014D
:100EB000B601C70101E00E94242949015A016B01D2
:100EC0007C011F5FC4CF61E070E0809101280E9427
:100ED000E60385E499E20C94BA06FC016F3F7105C4
:100EE00081F1808581FD2DC0603271055CF581E066
:100EF00090E002C0880F991F6A95E2F7809590955F
:100F0000092E000CAA0BBB0B4285538564857585A1
:100F100084239523A623B72382879387A487B58745
:100F200082859385A485B585892B8A2B8B2B49F4E3
:100F300086859785A089B189892B8A2B8B2B09F40B
:100F4000108608956052710981E090E002C0880F18
:100F5000991F6A95E2F780959095092E000CAA0BCF
:100F6000BB0B468557856089718984239523A62309
:100F7000B72386879787A08BB18BD2CFFC016F3FB9
:100F80007105E9F1603371051CF082E080870895F6
:100F900080858160808760327105C4F481E090E0D3
:100FA00002C0880F991F6A95E2F7092E000CAA0B60
:100FB000BB0B4285538564857585842B952BA62BA9
:100FC000B72B82879387A487B587089560527109EC
:100FD00081E090E002C0880F991F6A95E2F7092E20
:100FE000000CAA0BBB0B4685578560897189842B41
:100FF000952BA62BB72B86879787A08BB18B08954F
:10100000E0ECF8E020812E7F2083FC011782089518
:10101000E0ECF8E082818E7F82830895E0ECF8E0D6
:1010200082818160828308956F3FB1F0E62FE2955F
:10103000EF7044E0E49F90011124DC01ED91FC91FC
:10104000E20FF31F6F70B8E06B9FC0011124628143
:101050007381860F971F089590E080E00895982F80
:1010600080336CF08A3324F08F3524F08B3724F4EE
:1010700081E0089581341CF081E09B350CF080E024
:101080000895FC018485811114C0A781B0858185F4
:1010900092852FEF3FEFA817B90730F4CD010196E5
:1010A000878390872C9130E037FD20E0238781E013
:1010B0008487838508951F93CF93DF93EC01162FC8
:1010C0000E944108811306C01C8681E0DF91CF9108
:1010D0001F91089580E0FACF0F931F93CF93DF9372
:1010E0008C01EB018991882369F0C8010E944108B5
:1010F000882379F0FE013197908198130DC0F80193
:101100001486F0CF90E080E0DF91CF911F910F9196
:10111000089582E090E0F8CF83E090E0F5CFCF93A0
:10112000DF93EC01CE010E9441088B304CF48930F2
:101130005CF4882359F081E08E8390E080E00BC05E
:101140008D3011F08032B9F71C86ECCF8E81811181
:1011500005C081E090E0DF91CF91089582E090E0BA
:10116000FACFFC019289915084E0989F900111245C
:10117000A089B189A20FB31F1296ED91FC9113972C
:101180003097E9F011962C9111978C912817B8F4AB
:1011900081E0820F11968C9388E0289FA001112492
:1011A000E40FF51F309759F014828FEF8583168274
:1011B0001782BF01892F8295807F820F089560E09A
:1011C00070E08FEF0895DF92EF92FF920F931F93DD
:1011D000CF93DF93EC017B01D12C688979898A89CF
:1011E000D816E0F484E0D89E80011124060F171F62
:1011F000D80112966D917C916115710541F0D7016E
:10120000ED91FC910280F381E02DC7010995F80171
:101210001282138210821182D394DFCF1A8A8FEF49
:101220008C8BC617D70761F0D701ED91FC91028036
:10123000F381E02DC7010995C88BD98B84E08B8B96
:10124000DF91CF911F910F91FF90EF90DF90089564
:10125000DB01ED91FC9111970280F381E02DBC013F
:10126000CD010994CF93DF93EC01E881F981B0E0DF
:10127000A0E03097F9F09F012C5F3F4F6217730792
:10128000A1F4928191509283911114C08081918137
:10129000109741F08D939C93BA01CF01DF91CF91CC
:1012A0000C94280988839983F7CFDF010190F0819E
:1012B000E02DDFCFDF91CF9108958F929F92AF9273
:1012C000BF92CF92DF92EF92FF920F931F93CF9333
:1012D000DF938C01EB01FC01848180FF0AC048810F
:1012E0005981608171816C5F7F4FCE0103960E94AE
:1012F0003209F8018481807681F10115110569F1C7
:10130000D0805E01F5E1AF0EB11C4E0183E0880E86
:10131000911CEFEFDE16F1F06D2DC5010E9414084F
:101320007C01FC01C580848187FF07C04881598109
:1013300066817781C4010E943209BE01C7010E9403
:101340005D09F701848180788483898D8583D98EB6
:10135000DC2CDFCFF801D082D182DF91CF911F91B9
:101360000F91FF90EF90DF90CF90BF90AF909F9044
:101370008F900895EF92FF920F931F93CF93DF9377
:101380007C018B01EA016F3F710509F0B0F4E8813F
:10139000F9810480F581E02DAB014B5F5F4FBC010B
:1013A000CE010995009749F0FC010383DF91CF91AD
:1013B0001F910F91FF90EF900895E881F9810280CD
:1013C000F381E02DB701CE01099590E080E0EECFEA
:1013D000FF920F931F93CF93DF93EC01F62E8A8138
:1013E0009B810097C9F06C817D81FC0123812617C8
:1013F000170691F408811981F80140815181660F27
:10140000771F6F5F7F4F0E94BA09009719F421E0A0
:10141000F80122838A839B838A819B81009759F0FC
:101420002C813D81A9014F5F5F4F4C835D83820F0B
:10143000931FFC01F482DF91CF911F910F91FF90D8
:1014400008959F92AF92BF92CF92DF92EF92FF9258
:101450000F931F93CF93DF93CDB7DEB72597CDBF03
:10146000DEBF8C010E944108D82EF8011486F12CB1
:10147000E12C60EFC62EC8010E944108F8011486D5
:10148000D81609F4B1C0811111C082E090E0259610
:10149000CDBFDEBFDF91CF911F910F91FF90EF90F5
:1014A000DF90CF90BF90AF909F9008958C3509F05A
:1014B00099C0C8010E944108882339F3E0EDF7E99B
:1014C000853709F083C0F801148654E0952EB12CBD
:1014D000A12CC8010E9441088823B9F2813434F458
:1014E0008053803130F083E090E0D1CF8F7D8753FF
:1014F000F8CF44E0AA0CBB1C4A95E1F7A82AF801F2
:1015000014869A949110E5CFC501985D8115944099
:1015100020F47501F3E0FF22AECFC5019C5D81157B
:101520009440A8F483E0B822B701762F6627770F9E
:10153000770F6A297B2990E080E001966038710579
:101540008105910540F4C8010E94E80994CFB501D6
:1015500090E080E0F3CF1982262F2F7320682A8332
:1015600026E096958795779567952A95D1F760320D
:10157000710580F4606C6B835E01E4E0AE0EB11C1B
:10158000F50162915F01662309F475CFC8010E94DD
:10159000E809F6CF262F2F7320682B8386E07695F7
:1015A00067958A95E1F76031710538F4606E6C8358
:1015B0005E01F5E0AF0EB11CE3CF60686C83CD82B5
:1015C0005E0126E0A20EB11CDBCF329690819923FA
:1015D00009F489CF8913F9CF8181882309F483CF56
:1015E000F8011486682FAFCF82819381892B19F47B
:1015F00084E090E04CCF90E080E049CFAF92BF9282
:10160000CF92DF92EF92FF920F931F93CF93DF93CE
:10161000DC011296ED91FC91139714968D919C919B
:101620001597E80FF91F14820D911C9111971496CC
:101630006D917C91159712968D919C9113979C01B9
:101640002C5F3F4FE801EB81FC817B01E20EF31E32
:101650003097B9F043814617170679F45901AF0165
:101660004C5F5F4FEA14FB0499F1E501C9905E01FC
:10167000EA01D990AE01CD14A9F30190F081E02DDB
:10168000E7CFED01F801408151810E94BA09FC01C8
:10169000892B21F481E0D80112968C93A881B9811D
:1016A00013968D919C911497808391831396ED935B
:1016B000FC9314971A821B82CF01DF91CF911F9167
:1016C0000F91FF90EF90DF90CF90BF90AF90089573
:1016D00082818F5F8283F0CFDC01ED91FC910088E5
:1016E000F189E02D23E030E00994CB010C945129DD
:1016F0008F929F92AF92BF92CF92DF92EF92FF9222
:101700000F931F93CF93DF936C018B01DB015996ED
:10171000FC90BFEFFB1621F16F2DC80145960E948A
:101720001408EC018D81F801818F209709F496C08F
:101730001C828FEF8D831E821F82D60111966C91C1
:101740006F3F09F49FC0C80145960E941408FC0130
:10175000F582D6011196FC92BE018F2D9D8084C02A
:101760005B01F5E0AF0EB11CDB01ED90FC90119731
:1017700057968C91882349F0C5010E94B108C62F65
:10178000D72F209711F0F82ED8CFF801C789908D68
:10179000C91325C0C03109F461C0CC0F65897689B1
:1017A000D701ED91FC91B4E0CB9FA0011124A616C6
:1017B000B70609F04BC00190F081E02DBA01C701D6
:1017C0000995009709F44AC020E1F501DC01019078
:1017D0000D922A95E1F7F801858B968BC08FD80181
:1017E0005596CD91DC91569757968C91579721E05D
:1017F000280F57962C93B4E08B9FC0011124C80F7B
:10180000D91F90E1892E203111F48FE0882EE8E075
:101810008E9EB0011124D701ED91FC910190F081D1
:10182000E02DC70109958A839B83892B09F4812CBC
:1018300088821982CD2B91F0C5010E94B108C62F74
:10184000D72FF82E209709F078CF08C00480F581B3
:10185000E02DC7010995009709F0BDCF81E0F8019F
:10186000828360E070E08FEF992DDF91CF911F911F
:101870000F91FF90EF90DF90CF90BF90AF909F902F
:101880008F900895F601F082F18266CFFB010190FE
:101890000020E9F73197AF01461B570BDC01ED91B2
:1018A000FC910280F381E02D09948F929F92AF9278
:1018B000BF92EF92FF920F931F93CF93DF93CDB719
:1018C000DEB7A197CDBFDEBF7C01FA01CB0119A223
:1018D000223008F42AE08E010F5D1F4F822E912CDA
:1018E000B12CA12CBF01A50194010E94D928F901B6
:1018F000CA016A30F4F4605DD8016E938D01232B28
:10190000242B252B79F790E080E0109721F0BD0182
:10191000C7010E94460CA196CDBFDEBFDF91CF91DB
:101920001F910F91FF90EF90BF90AF909F908F907D
:101930000895695CE1CF2F923F924F925F926F9230
:101940007F928F929F92AF92BF92CF92DF92EF924F
:10195000FF920F931F93CF93DF9300D01F92CDB7C9
:10196000DEB78A839B834B01FC01828993890197AF
:1019700009F0CEC08F0144244A9431E090E08FEF0B
:1019800020E042814111B0C043814111ADC09F5F51
:101990008F3F11F4822F91E0391714F4392F482E1C
:1019A00032962F5F283069F71A821B82D12CC12C06
:1019B000A42C042C000CBB083501630E711C37FDF0
:1019C0007A94CA14DB0424F0C614D7040CF490C033
:1019D000F8018281682F70E094E0759567959A957B
:1019E000E1F7362E8F70582E8381E82EF12C24E0FB
:1019F000F594E7942A95E1F72E2C8F70898366235E
:101A000009F4B7C0F9E0F61708F470C0605DC401CE
:101A10000E94D3042A813B81280F391F2A833B83EC
:101A200039E060E3351508F467E5650DC4010E94EF
:101A3000D304EA81FB81E80FF91FEA83FB833110AD
:101A400004C0511002C0222079F0F9E060E3F215E1
:101A500008F467E56E0DC4010E94D3042A813B811E
:101A6000280F391F2A833B833981632F605D3A3009
:101A700010F06981695AC4010E94D304EA81FB8194
:101A8000E80FF91FEA83FB83F7E0CF16D10451F08A
:101A90006AE3C4010E94D3042A813B81280F391FC5
:101AA0002A833B833FEFC31AD30A0E5F1F4F88E0A0
:101AB000C816D10409F085CF8A819B812396CDBFBA
:101AC000DEBFDF91CF911F910F91FF90EF90DF90DC
:101AD000CF90BF90AF909F908F907F906F905F90CE
:101AE0004F903F902F9008958FEF5ACF695A8FCF24
:101AF000AC14BD04B9F64110CBCF6AE3C4010E9417
:101B0000D304EA81FB81E80FF91FEA83FB83C0CF8E
:101B1000EA80FB80EEE0EE0EF11CAA80BB80F1E1D2
:101B2000AF0EB11C10E000E0F70141917F0150E0E1
:101B300070E060E02AE0C4010E94550C6C016EE286
:101B4000C4010E94D3048C0D9D1D080F191FAE14F3
:101B5000BF0451F7EA81FB81418950E070E060E009
:101B60002AE0C4010E94550C800F911F8A839B8339
:101B7000A3CF511055CF67CF0F931F93CF93DF9310
:101B8000EC010E94460C8C0161EE77E9CE010E94C7
:101B9000460C800F911FDF91CF911F910F910895F7
:101BA000DF92EF92FF920F931F93CF93DF93611514
:101BB000710561F460E070E08FEF9D2DDF91CF91B2
:101BC0001F910F91FF90EF90DF9008958A01EB0134
:101BD000DC01FC900B5E1F4F6F2DC8010E941408A2
:101BE000009741F3FC01E580009721F30680F7811F
:101BF000E02DDE010D900020E9F79D012150310913
:101C00002C1B3D0BB0E0A0E0309739F0DF010D90C8
:101C10000020E9F71197AE1BBF0B2A173B0751F4C1
:101C2000DE012C0F3D1FA217B30769F05D914191B2
:101C30005417C9F36E2DC8010E941408009709F4C7
:101C4000B9CFFE2CCFCFBC018F2DDE2CB6CF4F925B
:101C50005F926F927F928F929F92AF92BF92CF923C
:101C6000DF92EF92FF920F931F93CF93DF93EC01DC
:101C70008B01D42E0E948F087C01892B09F047C06C
:101C8000CE010E944108863609F45AC124F58732F4
:101C900029F08B3561F1823209F05BC11C821D8213
:101CA0008A819B81892B31F4888199810E94C601A8
:101CB0008A839B83CE010E94210A7C01892B39F5FE
:101CC000CE010E94FE0AF801248120782560248339
:101CD000808391831CC0843709F416C18B3709F4C3
:101CE0005FC08E3609F035C16FEE77E916C1F80195
:101CF00084818078806484830115110519F08FEF49
:101D000080838183D11015C0D5E0ED2EF12CC70161
:101D1000DF91CF911F910F91FF90EF90DF90CF90C7
:101D2000BF90AF909F908F907F906F905F904F90FB
:101D300008951C86CE010E948F08009709F085C087
:101D40006DE5CE010E945B088111E1CFDA946D85CB
:101D50007E85C8010E94780B6115710521F4B4E0FD
:101D6000EB2EF12CD4CF4D2DCE010E94270E0097E3
:101D700009F06BC0CE010E948F08009709F065C082
:101D80006DE5CE010E945B088111C1CF6CE2CE01EE
:101D90000E945B088111DBCFC3E0EC2EF12CB7CFA2
:101DA000F80184818078806284830115110519F01F
:101DB0008FEF80838183DD2009F4A6CF1C86CE01BE
:101DC0000E948F08009709F040C06DE7CE010E9485
:101DD0005B0881119CCFBB24BA94BD0C1C821D8270
:101DE0008A819B81892B31F4888199810E94C60167
:101DF0008A839B83CE010E9441088732E1F08232C0
:101E0000D1F0CE010E944108D82E0E942F088823CD
:101E100019F21C866D2DCE010E94E809CE010E94A8
:101E20004108D82E0E942F088111F3CF8A819B810F
:101E3000892B31F494CFCE010E94210A009729F416
:101E4000CE010E948F08009711F07C0160CF6AE3F9
:101E5000CE010E945B08882309F49ECFEA81FB81B2
:101E60008C819D81E80FF91F14824D855E856A8102
:101E70007B816C5F7F4FC8010E94D00DCB016B014D
:101E8000672BC9F5CE010E94FE0A4C016D857E8547
:101E9000C8010E94780B6B016115710509F45FCFD1
:101EA000FB01848180688483F4E08F0E911CF6012D
:101EB000868297824B2DB601CE010E94270E009795
:101EC00021F6CE010E948F08009709F0BECF6DE782
:101ED000CE010E945B0881111ACF6CE2CE010E94F4
:101EE0005B08882309F458CFCE010E948F08009721
:101EF00009F474CFAACF6D857E850E945D09F60135
:101F0000848180788483D6CFF8018481807886604C
:101F1000848381E0808364EE77E9CE01DF91CF9105
:101F20001F910F91FF90EF90DF90CF90BF90AF90F7
:101F30009F908F907F906F905F904F900C946C0863
:101F4000F8018481807886608483108269EE77E965
:101F5000E4CFCE010E9441085E01FFE0AF0EB11C4C
:101F6000D12C9A2CCB2C803374F08A3374F42FE369
:101F7000D21699F01C86D394F50181935F01CE01AE
:101F80000E944108F0CF8B3291F393ED980F92307D
:101F900070F3982F9F7D953451F3FE01ED0DF11DE7
:101FA00017868F858B32E1F16096DD24D3948D32D4
:101FB00019F0C92DDC2DD12C888190ED980F9A3025
:101FC00018F08E3209F0E8CE60E070E0CB01FE013F
:101FD0002191A0ED8A2E820E39E0381518F16A3968
:101FE00049E97407840749E1940730F5AAE0B0E0B5
:101FF0009B01AC010E947A28912CB12CA12C2401C8
:1020000035014094509460947094461657066806C3
:10201000790690F0680D791D8A1D9B1DEF01D7CFC1
:102020006096C9CF211108C0DD2069F161307105CA
:10203000810550E89507A0F0C12CEAE08E2E912C86
:10204000A12CB12C61157105F0E88F07910528F1DD
:10205000A50194010E94D928CA01B901C394F2CF05
:10206000F801248120782A6024839B01AC01882711
:102070009927DC01821B930BA40BB50B8083918302
:10208000A283B38344CEF80124812078286024837E
:1020900060837183828393833ACEDE01299130ED90
:1020A000320F3A3010F4C394F8CF2E32D9F4FD0138
:1020B0003196DF013196CC91C053CA3098F46C3C14
:1020C0002CEC72072CE08207910598F7AAE0B0E0AB
:1020D0009B01AC010E947A286C0F711D811D911D1E
:1020E000CA94E7CF2C912F7DD0E0C0E0253409F0D1
:1020F00055C011962C9111972D32C9F51296BB241B
:10210000B394FD01D0E0C0E02C2D0C2C000C330B5F
:102110005AE0952EDF01A19040ED4A0D4A30C8F5F6
:102120009C9EA0019D9E500D1124CA2DAA0CDD0B72
:10213000E097C40FD51FAE01420F531F4732510520
:102140004CF3F8018481BB20C9F040E050E060E02E
:1021500070E8D11003C040E050E0BA0180788C6094
:10216000F80184834083518362837383D0CD2B3203
:1021700019F01196B12CC5CF1296FCCF40E050E07B
:1021800060E87FEFD110EACF40E050E060E87FE701
:10219000E5CFBB2019F0D195C195D1092C91211122
:1021A000FBCDCC0DD11DC7FCDA950E945B273BE12E
:1021B000A32E33E0B32E1C161D063CF0D195C1951D
:1021C000D10943E0A42E43E0B42EC12C209791F016
:1021D000C0FF0CC024E0C29EF0011124EA0DFB1DDB
:1021E00025913591459154910E94BC27D595C7956D
:1021F000C394ECCFD1109058F801248120782C6042
:102200002483608371838283938381CDFC018081E9
:102210009181009711F00C94ED2908950C94ED290B
:10222000CB010C94ED290F931F93CF93DF93EC0117
:1022300088819981009759F02A813B8126173707B9
:1022400030F081E0DF91CF911F910F9108958B01C4
:102250006F5F7F4F0E94762A009759F08883998399
:102260000A831B832C813D81232B59F7FC011082AB
:10227000E8CF80E0E7CFAF92BF92DF92EF92FF927C
:102280000F931F93CF93DF93DD24D3944115510512
:10229000F9F07A015B01EC010C811D81040F151F1F
:1022A000B8010E941311D82E882391F0288139811A
:1022B0008C819D81A701B501820F931F0E94402B45
:1022C0000C831D8388819981080F191FF8011082E2
:1022D0008D2DDF91CF911F910F91FF90EF90DF90A7
:1022E000BF90AF900895EF92FF920F931F93CF93FB
:1022F000DF93EC017B018A01BA010E94131128814E
:102300003981811114C02115310519F0C9010E94CC
:10231000ED29188219821C821D821A821B82CE012D
:10232000DF91CF911F910F91FF90EF9008950C8353
:102330001D83A801B701C9010E94402BE881F981E2
:102340008C819D81E80FF91F1082E9CFFC0110827A
:1023500011821282138214821582FB0101900020E7
:10236000E9F73197AF01461B570B0C947311CB0162
:10237000BA010C94762ACF92DF92EF92FF920F93DC
:10238000FC01C12CB9E0DB2EBDE3EB2EF12CC082A9
:10239000D182E282F3821482158281E090E086830A
:1023A0009783C0900328D0900428E0900528F090EF
:1023B0000628F694E794D794C79490E04C155D05F1
:1023C0006E057F0540F4F694E794D794C7949F5F19
:1023D0009630A1F797E004600187892F8095A82F98
:1023E000A170B0E084E0AA0FBB1F8A95E1F791626B
:1023F0009A2B80E0232B09F480E4982B90870F918F
:10240000FF90EF90DF90CF9008950F931F93CF939D
:10241000DF93CDB7DEB72A97CDBFDEBF8C01FC01BD
:10242000878181110CC0108611861286138614864E
:10243000158616861786108A118A81E08783809117
:10244000E305F8019681892B8093E30561E070E054
:1024500083810E94EB0361E070E0F80184810E94B7
:10246000EB038091C10884608093C1088091C0080B
:1024700081628093C008409187295091882960919A
:10248000892970918A2900918B2920918D29309179
:102490008E29CE0101960E94BB1199858A85909361
:1024A000C0088093C1082A96CDBFDEBFDF91CF91CF
:1024B0001F910F910895CF9383E28093012884E2C6
:1024C00080930228C1E0C0932A288DE180930028E0
:1024D00061E070E083E20E941E0370E060E084E24D
:1024E0000E94EB0361E070E08DE10E94EB0361E08C
:1024F00070E08CE10E941E0361E070E08CE10E94BC
:102500007E0361E070E083E20E94E60361E070E038
:102510008DE10E94E6036AE070E080E090E00E94B6
:10252000970470E060E08DE10E94E6036EEE72E0D9
:1025300080E090E00E94970470E060E08CE10E94EF
:102540007E0370E060E08CE10E941E0385E499E266
:102550000E940512C0933F28CF9108955F926F9219
:102560007F928F929F92AF92BF92CF92DF92EF9223
:10257000FF920F931F93CF93DF93CDB7DEB7629790
:10258000CDBFDEBF3C010B871C872D873E87042F04
:102590004F87588B698B7A8B29893A894B855C8563
:1025A0006D857E85CE0101960E94BB1159841A85E6
:1025B000D30118968C91882319F081FF18C0F894E4
:1025C0005092C0081093C1086296CDBFDEBFDF9164
:1025D000CF911F910F91FF90EF90DF90CF90BF9020
:1025E000AF909F908F907F906F905F90089580FF45
:1025F000E7CFF30182849384A484B584C12CD12CC9
:102600007601B0E09401A501B601C701A0E00E94E7
:102610003F29A9F1217030E040E050E060E070E037
:1026200080E090E00E943F29E9F090E080E0B03344
:1026300070F48B2F869586958695F0E28F9FC0016A
:102640001124805F9B4F2B2F2770820F911DFC015F
:10265000408193012B0F311DF901428BFC01208138
:10266000287F20839401A501B601C70101E00E94E3
:10267000242949015A016B017C01BF5FC3CFD301FB
:102680001E968D909D90AD90BC905197C12CD12CF1
:102690007601B0E29401A501B601C701A0E00E9455
:1026A0003F2909F48DCF217030E040E050E060E038
:1026B00070E080E090E00E943F29E9F090E080E047
:1026C000B03370F48B2F869586958695E0E28E9FC9
:1026D000C0011124805F9B4F2B2F2770820F911D0B
:1026E000FC01408193012B0F311DF901428BFC014C
:1026F0002081287F20839401A501B601C70101E054
:102700000E94242949015A016B017C01BF5FC2CF9D
:10271000BF92CF92DF92EF92FF920F931F93CF93CE
:10272000DF93CDB7DEB72897CDBFDEBF6C01E62EB5
:10273000B42EF52E80E0082F898389E08A838DE30B
:102740008B831C821D821E8281E0682F8F831886F6
:1027500019E02DE330E040E05E8170E085E499E22D
:102760000E94AE1270E060E0F60186850E94E603EA
:1027700082E10E94EB010B2D1F2DE00EF12EF11CCA
:102780000E151F0531F0F80181918F010E94EB01B8
:10279000F7CF61E070E0F60186850E94E60385E4EC
:1027A00099E22896CDBFDEBFDF91CF911F910F91A7
:1027B000FF90EF90DF90CF90BF900C94BA06DF921D
:1027C000EF92FF920F931F93CF93DF93CDB7DEB7B6
:1027D0002897CDBFDEBF7C01D62E80E0082F8983ED
:1027E00089E08A838DE38B831C821D821E8281E0B7
:1027F000682F8F83188619E02DE330E040E05E817A
:1028000070E085E499E20E94AE1270E060E0F701AA
:1028100086850E94E6038D2D80680E94EB0180E092
:102820000E94EB01182F61E070E0F70186850E949D
:10283000E60385E499E20E94BA06812F2896CDBF6F
:10284000DEBFDF91CF911F910F91FF90EF90DF904E
:102850000895CF92DF92EF92FF920F931F93CF9341
:10286000DF93CDB7DEB72897CDBFDEBF7C01C62E84
:10287000D42E80E0082F898389E08A838DE38B83BF
:102880001C821D821E8281E0682F8F83188619E0CA
:102890002DE330E040E05E8170E085E499E20E9443
:1028A000AE1270E060E0F70186850E94E6038C2D91
:1028B0000E94EB018D2D0E94EB0161E070E0F701B9
:1028C00086850E94E60385E499E22896CDBFDEBFA7
:1028D000DF91CF911F910F91FF90EF90DF90CF90FC
:1028E0000C94BA06CF92DF92EF92FF920F931F9350
:1028F000CF93DF93EC016B01F42E890140E062E09D
:102900000E94291444E06AE0CE010E94291440E8A4
:1029100064E1CE010E942914A6016F2DCE010E9410
:10292000881343E062E0CE010E9429140E94C7048C
:102930006B017C0129E5C20ED11CE11CF11C6AE08F
:10294000CE010E94DF1382FF1BC040E062E0CE0197
:102950000E94291464E4CE010E94DF13F8018083F1
:1029600062E4CE010E94DF13F801818380E0DF91F1
:10297000CF911F910F91FF90EF90DF90CF9008952E
:102980000E94C7046C157D058E059F05C0F283E08B
:10299000EECF2F923F924F925F926F927F928F92E3
:1029A0009F92AF92BF92CF92DF92EF92FF920F93DE
:1029B0001F93CF93DF93CDB7DEB72C97CDBFDEBF8C
:1029C0004C011B01D42E3901280180E0E114F104EF
:1029D00011F0F70180811C2D1295107F180F40E037
:1029E00062E0C4010E9429144FE768E0C4010E941C
:1029F000291440E864E1C4010E942914A1016D2D4D
:102A0000C4010E948813412F6AE1C4010E94291465
:102A10004CE062E0C4010E9429146AE1C4010E94F2
:102A2000DF13482F40686AE1C4010E9429140E9404
:102A3000C7049B01AC012C5D3F4F4F4F5F4F29876F
:102A40003A874B875C8768E0C4010E94DF13982FA8
:102A5000907309F0D9C080FF17C083E02C96CDBFDA
:102A6000DEBFDF91CF911F910F91FF90EF90DF902C
:102A7000CF90BF90AF909F908F907F906F905F901E
:102A80004F903F902F9008950E94C70429853A8562
:102A90004B855C856217730784079507A0F2DDCF2D
:102AA0006114710409F485C04114510409F481C012
:102AB00064E1C4010E94DF13D82EF20180818D15DC
:102AC00008F49CC0D082DD2009F457C080E0082FB4
:102AD000898389E08A838DE38B831C821D821E8219
:102AE00081E0682F8F83188619E02DE330E040E005
:102AF0005E8170E085E499E20E94AE1270E060E0D1
:102B0000F40186850E94E6031FEF1D0D82E90E94F5
:102B1000EB01CC20B1F08FEF90E09C0102C0220FBE
:102B2000331FCA94E2F7690182E90E94EB019C2DF0
:102B30009095F301208192238C21982B9083CC24B3
:102B4000C39413012C0C311CC11640F482E90E947D
:102B5000EB01F10181931F01C394F6CF80E00E9445
:102B6000EB01F101808361E070E0F40186850E9451
:102B7000E60385E499E20E94BA0668E1C4010E9476
:102B8000DF138770E114F10411F0F7018083B3FCC7
:102B900037C061147104B1F14114510499F1AA20B4
:102BA00089F1F2014081413031F4843029F58FEF11
:102BB00055CF80E0ECCF4230F8F081111DC042507B
:102BC0009E012F5F3F4FB301C4010E947214811117
:102BD00045CFF2019081690E711CF301329720817B
:102BE0009981291309C0F1E06F1A7108F30120815E
:102BF0009A81291709F432CF87E030CF84E02ECFB5
:102C000082E02CCF80E02ACF6CE0C4010E94DF1369
:102C1000B82E837109F444CF81E020CF0F931F9326
:102C2000CF93DF938C01D62FC42F0E94DF13C09562
:102C30004C2F48236D2FC801DF91CF911F910F9129
:102C40000C9429148F929F92AF92CF92EF92FF92A1
:102C50000F931F93CF93DF93CDB7DEB72597CDBFEB
:102C6000DEBF4C0182E08D8340E064E2C4010E943B
:102C7000291440E066E2C4010E94291446E268E497
:102C8000C4010E94291486E28B838D818230A0F1D9
:102C900040E86CE1C4010E940E1687E08C83A12CF1
:102CA000C12CCE0104967C018E010B5F1F4F9E014B
:102CB0002F5F3F4F41E0BE016D5F7F4FC4010E9417
:102CC000C914982F811115C08D818230A9F48C818F
:102CD000811112C081E02596CDBFDEBFDF91CF917B
:102CE0001F910F91FF90EF90CF90AF909F908F909A
:102CF000089581E0923079F380E0EDCF2F923F92FA
:102D00004F925F926F927F928F929F92AF92BF92FB
:102D1000CF92DF92EF92FF920F931F93CF93DF93A7
:102D2000CDB7DEB72D97CDBFDEBF16E0413508F039
:102D300045C1342E4B013C0140E86CE10E940E1667
:102D400083E98983332029F081E0F4019081953073
:102D500008F480E022242394B12C9B2D990F990F25
:102D6000990FD32CD91AD7FCD12C32E0882319F033
:102D700098E89B8333E021E09D2D977009F420E0D3
:102D80009D2D959595959595290FC9F094E0811104
:102D900093E0291708F4922FEB2DF0E03196E80D1F
:102DA000F91D232F4191A1E0B0E0AC0FBD1FA20F90
:102DB000B11D4C932F5F422F431B491798F3882373
:102DC00011F0F8E0DF0E8FE18D150CF082C090E776
:102DD0009A838B819C8189279D8189279E81892760
:102DE0008F839E01285F3F4F47E0BE016F5F7F4F9B
:102DF000C3010E947214182F8111E0C01A86E3E00B
:102E0000EB87DC86CE0107962C0199E09D87CA846A
:102E10004C2D4295407F4C0D6AE1C3010E9429145C
:102E2000A12CCE010A967C018E01055F1F4F9201F5
:102E30004D85BE016F5F7F4FC3010E94C914182FDB
:102E4000823009F065C06CE1C3010E94DF1385FD8B
:102E5000B5C08F7109F480E2282F30E04D2DDD0CD4
:102E6000550B421753070CF09DC0D82EE82FE5955F
:102E7000E595E595EF5F982F977081E009F480E084
:102E8000E80F81E090E08C0F9D1F8E0F911DFC01DB
:102E9000215031092770332781E090E002C0880F6C
:102EA000991F2A95E2F79C018081822B80838BCF2A
:102EB00085E98983332031F081E0F40190819830F5
:102EC00008F04BCF80E049CF87E9898326E0B22E16
:102ED000F9CF9D2D97709A878D2D85958595859530
:102EE0008E5F282F2295207F290F2A8321E09111C0
:102EF00001C020E0280F2D8744244394512C4C0E10
:102F00005D1E480E511CE9E0E81BEB87DC867FCF95
:102F1000811154C080E2D82E9C8590320CF457CF9A
:102F20008B81883809F040C083E093E0EB2DF0E01E
:102F30003196E80DF91D980FA1E0B0E0AC0FBD1F70
:102F4000A80FB11D2C9121938F5F8913F5CFBB84FE
:102F5000E3E0BE124AC08A85811147C09E012D5F01
:102F60003F4F41E0B201C3010E947214182F81113A
:102F700025C09B81F2018181981339C09C81828197
:102F8000981335C0808182FF12C02394F2E02F167F
:102F900009F48ECF83E0281609F496CF91E0291624
:102FA00009F4CECE15E00AC082E094E0BFCFF40170
:102FB0008387822D880F820D8F5F8083812F2D96CE
:102FC000CDBFDEBFDF91CF911F910F91FF90EF90AA
:102FD000DF90CF90BF90AF909F908F907F906F9039
:102FE0005F904F903F902F90089511E0E7CF17E04A
:102FF000E5CFCF92DF92EF92FF920F931F93CF9383
:10300000DF93CDB7DEB72897CDBFDEBF80E0082FB6
:103010001D821E8281E0682F12E12AE730E040E045
:103020005E8170E085E499E20E94AE1270E060E09B
:10303000809101280E94E6030E94C7046B017C0175
:10304000809102288932B8F00E94C7046C197D096A
:103050008E099F09653071058105910588F32896D1
:10306000CDBFDEBFDF91CF911F910F91FF90EF9009
:10307000DF90CF9008950E94C103019781F3E4CFC0
:10308000CF92DF92EF92FF920F931F93CF93DF9334
:1030900000D000D0CDB7DEB77C0186E08E9D8001E8
:1030A0008F9D100D11240D5F164DF80184819581BF
:1030B000892B09F08CC080819181892B59F480E49F
:1030C00090E00E945129F801828393838083918349
:1030D0001482158280E490E089839A8386E08E9D35
:1030E000F0018F9DF00D1124ED5FF64DC080D18071
:1030F000EC828CE10E94C103892B09F468C08091A5
:103100003F28811102C00E945B1280E00E941905D5
:103110000E94F91762E085E40E94520540E061E0F8
:1031200070E0CE0104960E94690541E062E070E023
:10313000CE0101960E9469050E94D4050E94630792
:1031400080E00E9419050E94F9171B820E94E30586
:10315000892B49F1CE0103960E94CA058B81853CDB
:1031600011F50E94D4058823D1F08FEF0E94460507
:10317000182F8FEF0E944605912F89839A8386012D
:1031800029813A81C8018C199D098217930738F467
:103190008FEF0E944605F80181938F01F1CFCE0198
:1031A00003960E94CA050E94630789819A8100974D
:1031B00071F026E02E9DF0012F9DF00D1124ED5FA2
:1031C000F64D20813181228333838483958386E089
:1031D0008E9DF0018F9DF00D1124ED5FF64D8481E1
:1031E00095812496CDBFDEBFDF91CF911F910F91C6
:1031F000FF90EF90DF90CF900895CF92DF92EF9203
:10320000FF920F931F93CF93DF937C016B018A0191
:103210000E9440180097F9F0801791070CF48C0178
:1032200086E08E9DE0018F9DD00D1124CD5FD64D9F
:103230006A817B81A801C6010E94402B8A819B8103
:10324000800F911F8A839B838C819D81801B910BB2
:103250008C839D83C801DF91CF911F910F91FF90C7
:10326000EF90DF90CF900895FC01848590E00C945E
:10327000FD180F931F93CF93DF931F92CDB7DEB747
:103280008C01DC01ED91FC910084F185E02D099524
:10329000892B91F0F801848541E050E0BE016F5F19
:1032A0007F4F90E00E94FD18898190E00F90DF91A0
:1032B000CF911F910F9108958FEF9FEFF7CFCF938D
:1032C000DF93FC01C485D0E0CE010E944018892B19
:1032D00081F086E08C9FF0018D9FF00D1124ED5F51
:1032E000F64D0280F381E02D808190E0DF91CF9157
:1032F00008958FEF9FEFFACFFC0184858F3F19F07F
:1033000090E00C94401890E080E00895CF92DF9216
:10331000EF92FF920F931F93CF93DF93CDB7DEB75A
:103320002897CDBFDEBF6C01162FF42EE52E2F831C
:10333000088719821A821B821C8280913F28811182
:1033400002C00E945B1280E00E9419050E94F917DA
:1033500065E08DE20E94520540E0612FC6010E94A7
:103360009A0540E064E0CE0101960E949A0582E051
:103370000E9446058E2D0E9446058F2D0E9446050F
:1033800040E061E0CE0107960E949A0541E061E0CD
:10339000CE0108960E949A05012F10E0C8014196BF
:1033A000837099270F5F1F4F892B19F00E94D40556
:1033B000F5CF0E94630781E09885943009F080E0A2
:1033C0000E9419050E94F9171E821D82AE014B5FF3
:1033D0005F4FBE016A5F7F4F8DE20E94FB050E9436
:1033E00063072896CDBFDEBFDF91CF911F910F916C
:1033F000FF90EF90DF90CF9008955F926F927F9251
:103400008F929F92AF92BF92CF92DF92EF92FF92F4
:103410000F931F93CF93DF93CDB7DEB72897CDBF20
:10342000DEBF888719821A821B821C826A837B8393
:103430004D835E8380913F28811102C00E945B1200
:1034400080E00E9419050E94F91761E08AE30E945A
:10345000520541E061E0CE0108960E949A050E9463
:10346000D4050E94D4050E94630780E00E941905DC
:103470000E94F9171F820E94E305892BE9F1CE0112
:1034800007960E94CA058F818A3BB1F50E94D40538
:10349000582E882389F18E010F5F1F4FB12CA12C6C
:1034A000682E712CA614B70404F58FEF0E94460510
:1034B000F8018083F12CE12CC82ED12CEC14FD04F2
:1034C00074F4F801818092808E0C9F1C8FEF0E9413
:1034D0004605F4018083FFEFEF1AFF0AEFCF8FEF6D
:1034E000A81AB80A0D5F1F4FDDCFE2E05E1204C0DC
:1034F000CE0107960E94CA050E9463072896CDBF99
:10350000DEBFDF91CF911F910F91FF90EF90DF9081
:10351000CF90BF90AF909F908F907F906F905F9073
:103520000895CF93DF93CDB7DEB72697CDBFDEBF2B
:1035300019821A821B821C821D821E82AE014B5F81
:103540005F4FBE016F5F7F4FFC0184850E94FD19B4
:103550008D8190E0982F88272E81820F911D2696CD
:10356000CDBFDEBFDF91CF9108950F931F93CF930F
:10357000DF93CDB7DEB72697CDBFDEBF8C01FB0151
:1035800019821A821B821C821D821E82AE014B5F31
:103590005F4FBE016F5F7F4F84850E94FD1980EAF7
:1035A00097E9D8018D939C93119752961D921C9286
:1035B0005397F801329680E1DF011D928A95E9F771
:1035C00089819A81AB81BC81F80186879787A08B1E
:1035D000B18BC8012696CDBFDEBFDF91CF911F9181
:1035E0000F910895CF93DF9300D0CDB7DEB78091D0
:1035F0003F28811102C00E945B1280E00E941905E1
:103600000E94F91760E08FE30E9452050E94630751
:1036100080E00E9419050E94F9178FEF89831A82B2
:10362000AE014E5F5F4FBE016F5F7F4F8FE30E9421
:10363000FB050E94630789810F900F90DF91CF9166
:103640000895CF92DF92EF92FF920F93CF93DF9383
:10365000EC017B016A018C858F3F39F0E881F981AB
:103660000488F589E02DCE0109950E94F21A8C8715
:103670008F3F09F442C0F70101900020E9F731972C
:10368000BF016E197F0904E0282FA601C7010E941F
:1036900086190E94C7046B017C01E881F9810688C4
:1036A000F789E02DCE010995811112C00E94C7044F
:1036B0006C197D098E099F0960317742810591055A
:1036C00038F461E070E080E090E00E949704E5CF7C
:1036D000E881F9810688F789E02DCE01099521E07E
:1036E00090E0811101C020E0822FDF91CF910F91F6
:1036F000FF90EF90DF90CF90089564EF77E988E630
:1037000098E20E94BC0D80E090E0EFCFCF92DF9274
:10371000EF92FF920F93CF93DF93EC017B016A014D
:103720008C858F3F39F0E881F9810488F589E02D97
:10373000CE0109950E94F21A8C878F3F09F442C08E
:10374000F70101900020E9F73197BF016E197F0959
:1037500002E0282FA601C7010E9486190E94C70413
:103760006B017C01E881F9810688F789E02DCE01A3
:103770000995811112C00E94C7046C197D098E0938
:103780009F09603177428105910538F461E070E06E
:1037900080E090E00E949704E5CFE881F9810688F7
:1037A000F789E02DCE01099521E090E0811101C05B
:1037B00020E0822FDF91CF910F91FF90EF90DF906B
:1037C000CF90089564EF77E988E698E20E94BC0DF7
:1037D00080E090E0EFCFCF92DF92EF92FF920F93D5
:1037E0001F93CF93DF9300D000D0CDB7DEB78C838B
:1037F0007B018A0180913F28811102C00E945B12E7
:1038000080E00E9419050E94F91762E084E40E949A
:10381000520540E061E070E0CE0104960E94690527
:1038200041E0B801C7010E946905075F1F4FC80149
:1038300083709927892B29F00E94D4050F5F1F4FB1
:10384000F6CF0E94630780E00E9419050E94F917D5
:1038500019821A821B820E94E305892B31F1CE0165
:1038600003960E94CA058B81843CF9F40E94D4051A
:103870008823B9F08FEF0E9446059E012F5F3F4FCE
:1038800069018901E82EF12CC8018C199D098E155A
:103890009F053CF48FEF0E944605F80181938F014C
:1038A000F3CFCE0103960E94CA050E946307898167
:1038B0009A812496CDBFDEBFDF91CF911F910F91EA
:1038C000FF90EF90DF90CF900895CF92DF92EF922C
:1038D000FF920F931F93CF93DF93222379F06A0116
:1038E0007B018C01C5E0D0E0A601B701F801848519
:1038F0000E94EB1B009721F42197B1F790E080E044
:10390000DF91CF911F910F91FF90EF90DF90CF90BB
:103910000895CF93DF9300D01F92CDB7DEB78B838E
:1039200080913F28811102C00E945B1280E00E94BA
:1039300019050E94F91761E08FE20E94520541E0EB
:1039400061E0CE0103960E949A050E94D4050E9470
:10395000D4050E94630780E00E9419050E94F917B0
:1039600019821A82AE014E5F5F4FBE016F5F7F4FBB
:103970008FE20E94FB050E94630789812396CDBFD9
:10398000DEBFDF91CF9108950F931F93CF93DF9305
:10399000FC0124852F3F09F1EC010190F081E02D1D
:1039A0000084F185E02D0995892B31F081E0DF91CC
:1039B000CF911F910F9108958C858F3F81F40C85D5
:1039C000F6E00F9F800111240D5F164DF8018081F4
:1039D0009181009779F48FEF8C8780E0E8CF0E9487
:1039E000891C843060F39BEF980F933040F38A304A
:1039F000E9F6E5CF0E94ED29F801128213821082C8
:103A0000118214821582E7CFCF93DF9300D01F92EB
:103A1000CDB7DEB78B8380913F28811102C00E9411
:103A20005B1280E00E9419050E94F91761E08EE2A6
:103A30000E94520541E061E0CE0103960E949A0582
:103A40000E94D4050E94D4050E94630780E00E9472
:103A500019050E94F91719821A82AE014E5F5F4F55
:103A6000BE016F5F7F4F8EE20E94FB050E946307DD
:103A70002396CDBFDEBFDF91CF9108950F931F93A3
:103A8000CF93DF93FC0184858F3F69F18F010E9402
:103A9000041DC2E3D0E0F80184858F3F69F00E94E5
:103AA000891C882349F0219739F064E670E080E0B2
:103AB00090E00E949704EFCFF801C485F6E0CF9F15
:103AC000E0011124CD5FD64D88819981009741F0A6
:103AD0000E94ED291A821B82188219821C821D8283
:103AE0008FEFF8018487DF91CF911F910F91089597
:103AF000FF920F931F93CF93DF93CDB7DEB7289735
:103B0000CDBFDEBF6B837C838D839E83142FF52E08
:103B10002F83088780913F28811102C00E945B1289
:103B200080E00E9419050E94F91764E08DE20E946E
:103B3000520540E064E0CE0103960E949A0582E0BF
:103B40000E9446058F2D0E944605812F0E94460542
:103B500040E061E0CE0107960E949A0541E061E0F5
:103B6000CE0108960E949A050E94630780E00E9499
:103B700019050E94F91719821A82AE014E5F5F4F34
:103B8000BE016F5F7F4F8DE20E94FB050E946307BD
:103B90002896CDBFDEBFDF91CF911F910F91FF908F
:103BA0000895AF92BF92CF92DF92EF92FF920F9360
:103BB000CF93DF93EC017B015A018C858F3F39F065
:103BC000E881F9810488F589E02DCE0109950E94EC
:103BD000F21A482F8C878F3F09F447C0F7012289DA
:103BE000338960E070E0CB01232B21F46685778573
:103BF0008089918904E0242FA5010E94781D0E94EC
:103C0000C7046B017C01E881F9810688F789E02D02
:103C1000CE010995811112C00E94C7046C197D095B
:103C20008E099F09603177428105910538F461E082
:103C300070E080E090E00E949704E5CFE881F98190
:103C40000688F789E02DCE01099521E090E08111E9
:103C500001C020E0822FDF91CF910F91FF90EF9074
:103C6000DF90CF90BF90AF90089564EF77E988E63A
:103C700098E20E94BC0D80E090E0EDCFAF92BF9241
:103C8000CF92DF92EF92FF920F93CF93DF93EC01ED
:103C90007B015A018C858F3F39F0E881F9810488D6
:103CA000F589E02DCE0109950E94F21A482F8C87E4
:103CB0008F3F09F447C0F7012289338960E070E043
:103CC000CB01232B21F4668577858089918902E0D9
:103CD000242FA5010E94781D0E94C7046B017C015E
:103CE000E881F9810688F789E02DCE0109958111D7
:103CF00012C00E94C7046C197D098E099F096031AA
:103D000077428105910538F461E070E080E090E051
:103D10000E949704E5CFE881F9810688F789E02DB4
:103D2000CE01099521E090E0811101C020E0822FB1
:103D3000DF91CF910F91FF90EF90DF90CF90BF90E8
:103D4000AF90089564EF77E988E698E20E94BC0D91
:103D500080E090E0EDCFAF92BF92CF92DF92EF92F2
:103D6000FF920F93CF93DF93EC017B015A018C8577
:103D70008F3F39F0E881F9810488F589E02DCE0183
:103D800009950E94F21A482F8C878F3F09F447C08B
:103D9000F7012289338960E070E0CB01232B21F405
:103DA000668577858089918900E0242FA5010E948E
:103DB000781D0E94C7046B017C01E881F9810688A7
:103DC000F789E02DCE010995811112C00E94C70428
:103DD0006C197D098E099F09603177428105910533
:103DE00038F461E070E080E090E00E949704E5CF55
:103DF000E881F9810688F789E02DCE01099521E057
:103E000090E0811101C020E0822FDF91CF910F91CE
:103E1000FF90EF90DF90CF90BF90AF90089564EF48
:103E200077E988E698E20E94BC0D80E090E0EDCF53
:103E3000CF92DF92EF92FF920F931F93CF93DF9376
:103E400000D01F92CDB7DEB76C018B017A01DC0187
:103E50001C968C918F3FA1F481E090E0F601828363
:103E6000938310E000E0C8012396CDBFDEBFDF9151
:103E7000CF911F910F91FF90EF90DF90CF90089519
:103E80004115510549F30E94EB1B009709F06AC0E8
:103E9000D6011F968C911F9781110CC0F601848565
:103EA0000E94041D81E090E0D60112968D939C93B0
:103EB0001397D7CFED91FC9102A0F3A1E02D21E063
:103EC000A701B801C60109958C01892B39F3F601C8
:103ED00084858B831A821982F12CE12C80913F28F2
:103EE000811102C00E945B1280E00E9419050E94AD
:103EF000F91761E08AE20E94520541E061E0CE01DB
:103F000003960E949A050E94D4050E94D4050E943F
:103F1000630780E00E9419050E94F917AE014F5F08
:103F20005F4FBE016E5F7F4F8AE20E94FB050E94D9
:103F300063078A81811118C0FFEFEF1AFF0A64E658
:103F400070E080E090E00E9497048A81811104C0B3
:103F500089E1E816F10410F2A9E1EA16F10409F486
:103F60007BCF81CF8C01B3CFF12CE12CEECF8F92A0
:103F70009F92AF92BF92CF92DF92EF92FF920F93F8
:103F80001F93CF93DF93CDB7DEB7AD97CDBFDEBF25
:103F90006C014B015A0180EA97E98D8B9E8B1FA221
:103FA00018A67E0187E1E80EF11C80E1D7011D9281
:103FB0008A95E9F780913F28811102C00E945B1227
:103FC00080E00E9419050E94F91761E084E30E94D5
:103FD0005205F40101900020E9F73197BF016819FB
:103FE000790941E0C4010E949A05F4010190002082
:103FF000E9F78F01081919090C5F1F4FC801837079
:104000009927892B29F00E94D4050F5F1F4FF6CF07
:104010000E94630780E00E9419050E94F91719A603
:104020001982AE014F5F5F4FBE01675D7F4F84E332
:104030000E94FB05182F0E946307112319F089A520
:10404000813019F010E000E039C080EA97E98983F7
:104050009A831B8A1C8A4E01F3E08F0E911C8CE020
:10406000D4011D928A95E9F78FEF8F87888B898B12
:104070008A8B80913F28811102C00E945B1280E0F0
:104080000E9419050E94F91760E085E30E9452051D
:104090000E94630780E00E9419050E94F9171DA67F
:1040A000AE01435D5F4FBE01675D7F4F85E30E94B8
:1040B000FB058C01892B99F40E946307C801AD961A
:1040C000CDBFDEBFDF91CF911F910F91FF90EF9099
:1040D000DF90CF90BF90AF909F908F9008951FA2D8
:1040E00018A68CE0F70111928A95E9F789A59AA59F
:1040F000ABA5BCA58BA39CA3ADA3BEA38B899C89B8
:10410000892B09F10E946307D601ED91FC91268568
:10411000378580EA97E989839A8380E1FE01779663
:10412000DE01139601900D928A95E1F78FA198A573
:104130008B8B9C8BA501BE016F5F7F4FC601F90180
:1041400009958C01BBCF40E150E0B701C4010E944A
:10415000332B892BB9F60E94630774CF1F920F92FD
:104160000FB60F9211242F933F934F935F936F934A
:104170007F938F939F93AF93BF9340913328509138
:10418000342860913528709136288091312890919B
:10419000322820912F2830913028420F531F611D63
:1041A000711D20912D2830912E28820F931F883E5B
:1041B00023E0920730F0885E93404F5F5F4F6F4F70
:1041C0007F4F809331289093322840933328509327
:1041D0003428609335287093362880913B2890913D
:1041E0003C28A0913D28B0913E280196A11DB11D0B
:1041F00080933B2890933C28A0933D28B0933E2881
:1042000081E08093B60ABF91AF919F918F917F918A
:104210006F915F914F913F912F910F900FBE0F9033
:104220001F9018951F920F920FB60F9211242F9383
:104230003F934F935F936F937F938F939F93AF932E
:10424000BF93EF93FF9388E698E20E944B02FF91A1
:10425000EF91BF91AF919F918F917F916F915F91FE
:104260004F913F912F910F900FBE0F901F90189577
:104270001F920F920FB60F9211242F933F934F93DB
:104280005F936F937F938F939F93AF93BF93EF93BE
:10429000FF93E0917428F0917528818181FD2FC0F2
:1042A000608180917A288F5F8F7390917B28891726
:1042B00041F0E0917A28F0E0E859F74D618F809362
:1042C0007A288091012990910229009739F0DC0128
:1042D000ED91FC910190F081E02D0995FF91EF9116
:1042E000BF91AF919F918F917F916F915F914F910E
:1042F0003F912F910F900FBE0F901F9018958081C6
:10430000EDCFCF92DF92EF92FF92CF93DF93E4E570
:10431000F8E280EA97E980839183A1E0B0E0A28B84
:10432000B38BE6E5F8E220E1EF0119922A95E9F76F
:10433000E0E4F8E280839183128A138A2CE042E45D
:1043400058E2EA01322F19923A95E9F71686178654
:10435000108A118AE8E6F8E21282138248EE53E0EE
:1043600060E070E04483558366837783CEE5D7E9C8
:10437000C083D183C0E6D8E0C487D5873AE13687C9
:104380003BE1378730E4308B128A138A148A158A0E
:1043900036E2368B178A108E10920129109202296C
:1043A000E3E0F9E23CE3EF0119923A95E9F7EFE334
:1043B000F9E230E5C32E33ECD32EE12CF12CC08290
:1043C000D182E282F38214821582E7E8F9E2C12CFD
:1043D000C9E0DC2ECDE3EC2EF12CC082D182E2824A
:1043E000F38214821582A683B783E5E4F9E2A8E795
:1043F000B7E9A083B183178231E03683A1E2A283BB
:10440000A2E2A483A0E2A383A6E1A583E3EBF9E201
:1044100012821382448355836683778346EA57E981
:10442000408351834FEF44873787EFE9F9E2808378
:104430009183128A138AA1EAB9E2ED0119922A95B1
:10444000E9F780EC868788EA87878BE6808B87ECA4
:10445000818BEFE8F9E286E997E9808391838AE02E
:10446000868789E08787DF91CF91FF90EF90DF907B
:10447000CF900895CF93DF93CDB7DEB7C858D10959
:10448000CDBFDEBF88ED90E084BF9093610080E0F7
:1044900094E2A4EFB0E08093032890930428A093C3
:1044A0000528B09306288091020686608093020654
:1044B00080910006816080930006809102068F7CC7
:1044C000809302068091A0008F788093A000809155
:1044D00002068061809302061092E20581E08093DB
:1044E000E40583E08093010A8FEF90E08093260A31
:1044F0009093270A80E890E08093380A9093390AD5
:1045000080933A0A90933B0A80933C0A90933D0A29
:104510008BE08093000A8091E50581608093E5053A
:104520008091E50582608093E505E0E8FAE037E0F8
:104530002FEF90E885E031832487958780837096FC
:10454000E03C4AE0F407B9F780E094E08093392832
:1045500090933A288091392890913A282FEF30E0B3
:10456000B9010E94C528609337287093382880913C
:10457000392890913A28E8EEF3E0BF010E94C5285F
:1045800060932F28709330288091392890913A2891
:10459000BF010E94C52880932D2890932E28209338
:1045A000BC0A3093BD0A8091B50A81608093B50A38
:1045B00084E08093B00A8091B00A81608093B00A51
:1045C000789461E070E08CE10E941E0361E070E08D
:1045D0008CE10E947E0361E070E08DE10E941E0389
:1045E00061E070E08DE10E947E0361E070E083E2B3
:1045F0000E941E0361E070E083E20E947E0361E09E
:1046000070E08EE10E941E0361E070E08EE10E9486
:104610007E0340E855E260E070E088E698E20E94A0
:104620006C0B47E0E42E48E2F42ECE0101964C01DB
:10463000BB24BA9468E078E988E698E20E94460CC8
:1046400062E178E288E698E20E94BC0DF7010190F1
:104650000020E9F7CF01885098426C0102E118E28E
:10466000F80101900020E9F78F0103511842809171
:104670003F28811102C00E945B1280E00E94190550
:104680000E94F91762E081E10E94520540E0602F2C
:1046900082E198E20E949A0541E06C2D87E098E261
:1046A0000E949A0511270A5F1F4F0C0D111DC801AA
:1046B00083709927892B29F00E94D4050F5F1F4F23
:1046C000F6CF0E94630780E00E9419050E94F91747
:1046D00061961FAE61971982A401BE01605B7F4F96
:1046E00081E10E94FB05892B19F46196BFAE6197A9
:1046F0000E94630761968FAD619714E08F3F09F4C4
:104700004EC00E94C7042B013C0110E00E94C70468
:10471000641975098609970920913F29309140292C
:1047200040914129509142296217730784079507E8
:10473000B0F5E0914329F0914429309709F00995AB
:1047400064E670E080E090E00E94970480913F284A
:10475000811102C00E945B1280E00E9419050E9434
:10476000F91760E080E20E9452050E94630780E032
:104770000E9419050E94F9176196BFAE61971982D0
:10478000A401BE01605B7F4F80E20E94FB050E9496
:10479000630761961FAD6197133008F4B7CF812F7F
:1047A00090E080932B2890932C2860E177E280E0C2
:1047B00090E00E949704133009F03CCF85E499E221
:1047C0000E94051261E070E080919D290E94EB0338
:1047D00061E070E080919D290E94E60380919E290E
:1047E0008F3F09F455C170E060E00E94EB038091B7
:1047F0009E29893208F447C161E070E080919E29CA
:104800000E94EB0370E060E080919E290E94E60325
:1048100083E090E00197F1F761E070E080919E29DC
:104820000E94E60362E370E080E090E00E9497045B
:1048300040E064E28FE899E20E94291440E066E2D9
:104840008FE899E20E94291446E268E48FE899E231
:104850000E94291440E864E58FE899E20E94291437
:1048600049EA66E58FE899E20E94291443E068E589
:104870008FE899E20E94291448EE6AE58FE899E2F0
:104880000E94291440E46AE28FE899E20E94291408
:104890004DE362E28FE899E20E94291468E28FE812
:1048A00099E20E94DF13982F9370933039F0482FCC
:1048B000436068E28FE899E20E9429146EE178E98A
:1048C00088E698E20E94BC0D91E2292E98E2392EEA
:1048D00020E5622E712C6C0E7D1EF5E06F0E711CB2
:1048E00030E5432E512C4C0E5D1E4AE1440E511C06
:1048F0008FE899E20E942216882309F4BCC08FE851
:1049000099E20E940905B82E882309F4B4C060E337
:1049100078E9CE018F579F4F0E94A61102E919E254
:10492000F80181918F014AE0B40190E00E942127B3
:10493000F40101900020E9F73197AF0148195909B6
:10494000B401CE018F579F4F0E943B11F9E2063907
:104950001F0731F742E050E06BE378E9CE018F5753
:104960009F4F0E943B11ED961EAE1FAEED97EF9646
:104970001EAE1FAEEF97C158DF4F18821982CF5776
:10498000D040CF57DF4F68817981C158D040611541
:10499000710559F0CB57DF4F48815981C558D04038
:1049A000CE0185589F4F0E9473116EE378E9CE01C6
:1049B0008B589F4F0E94A61180EA97E989839A83BA
:1049C00080E1E1EAF9E2DE01139601900D928A9509
:1049D000E1F78091B1299091B2298B8B9C8B49EBA7
:1049E0005BE0B40183EB99E20E94AB1E892B09F0D6
:1049F00065C068E578E988E698E20E94BC0DB12CB4
:104A0000CE018B589F4F0E940611CE0185589F4FB3
:104A10000E94061165E179E9B11002C06BE179E904
:104A200088E698E20E94BC0D80E589831A829E0187
:104A30002D5F3F4F42E0B4018FE899E20E9472146B
:104A400081110EC0A12CC12CF12CE12C10E000E052
:104A500030E020E044E0B4018FE899E20E94C914FC
:104A600048E060E18FE899E20E940E16CE018F5770
:104A70009F4F0E94061180E090E0892B09F438CF07
:104A80000E94000021CF0E94C103892B09F4B4CEFB
:104A90004FE062E08FE899E20E94291462E370E03F
:104AA00080E090E00E94970462E08FE899E20E9423
:104AB000DF1384FFBDCE115089F7BACE65E778E9E0
:104AC00088E698E20E94BC0D67E978E983EB99E2F9
:104AD0000E94460CEB964EAD5FADEB97E7966EAD40
:104AE0007FADE79783EB99E20E94181F6CE978E9A4
:104AF00083EB99E20E94BC0D66EA78E983EB99E2C8
:104B00000E94BC0D6CEB78E983EB99E20E94BC0D2E
:104B10006BED78E983EB99E20E94460CC158DF4FB8
:104B200048815981CF57D04070E060E02AE083EBA4
:104B300099E20E94550C61EE77E983EB99E20E94BD
:104B4000460C6CEE78E983EB99E20E94BC0D61EEB5
:104B500077E983EB99E20E94460CC158DF4F488108
:104B60005981CF57D040ED966EAD7FADED9783EB79
:104B700099E20E94181F61EE77E983EB99E20E94A7
:104B8000460C6EEF78E988E698E20E94BC0D60EE74
:104B900077E9CE0181599F4F0E94A61162962EAEF1
:104BA0003FAE629763961FAE639765961EAE1FAECB
:104BB0006597A7966EAE7FAEA797A8961FAEA897EB
:104BC00084E0A9968FAFA9978FEFAA968FAFAA9787
:104BD000AF961FAEAF9700E010E083EB99E20E9422
:104BE000C41C882309F442C083EB99E20E947C191B
:104BF000892BA1F183EB99E20E943919182F682FB4
:104C000088E698E20E94D3041B37B1F01D3791F477
:104C1000C857DF4F1883C858D04041E050E0BE016C
:104C200068577F4FCE0181599F4F0E943B111B2D2A
:104C300000E0D3CF002381F0C957DF4F1883C75856
:104C4000D04041E050E0BE0169577F4FCE0181590D
:104C50009F4F0E943B110B2D1B2DBFCF112309F439
:104C6000BCCF83EB99E20E943E1DB7CFE596CEAC58
:104C7000DFACE597E1960EAD1FADE19762966EADA4
:104C80007FAD6297C3010E94E30863961FAE6397EE
:104C90006296EEACFFAC629765968EAD9FAD659760
:104CA000009759F0FC012081318165962EAF3FAF0E
:104CB0006597B7010E942809EFCFAF961FAEAF9757
:104CC00080E590E08C0F9D1F89839A831B821C8254
:104CD0001D821E821F82088719870C0D1D1D0A87E1
:104CE0001B871D868E879F874AE0B201C4010E9400
:104CF000270E8C01892B51F48C85882339F0AF96CF
:104D00008FADAF9783FF02C003E010E08B819C81E1
:104D1000009731F0E981FA81608171810E94280950
:104D20000115110551F188EE92E00E94E102F801AF
:104D3000EE0FFF1FE452FD4F859194910E94E10216
:104D400061EE77E988E698E20E94460CB12C629603
:104D50000EAD1FAD629765968EAD9FAD65970097BE
:104D600009F44AC0FC012081318165962EAF3FAF26
:104D70006597B8010E942809EECFAF968FADAF9727
:104D800085FD02C0B12C14C0AE01405B5F4F61E5F0
:104D900078E9C2010E94D00DFB01309799F384811C
:104DA0008F778830F1F048F4882361F38630B9F0CA
:104DB00083EB99E20E943E1DCACF8A3091F08C307D
:104DC000B9F7BB24B39420E030E0A9016081718180
:104DD000828193810E9456278111EACFD3CFB08080
:104DE000E7CFBB24B39480819181A281B381892BC9
:104DF0008A2B8B2BE9F6C6CF62966EAD7FAD62979C
:104E0000C3010E94E308CE0181599F4F0E94061101
:104E1000F7CDCF93DF93C3E0D9E2888199810097E2
:104E200041F00E94ED291A821B82188219821C828D
:104E30001D82269689E2CF33D80779F7DF91CF918B
:104E40000895BB274A3031F4992322F4BDE29095AE
:104E500081959F4F0C942D27BB27FB015527AA272F
:104E6000880F991FAA1FA41710F0A41B83955051F7
:104E7000B9F7A05DAA3308F0A95DA193009779F76F
:104E8000B111B1931192CB010C944627DC01FC01C6
:104E9000672F71917723E1F7329704C07C916D936E
:104EA00070836291AE17BF07C8F308950E949827D8
:104EB00008F481E00895E89409C097FB3EF49095CA
:104EC0008095709561957F4F8F4F9F4F9923A9F0E3
:104ED000F92F96E9BB279395F69587957795679572
:104EE000B795F111F8CFFAF4BB0F11F460FF1BC0B6
:104EF0006F5F7F4F8F4F9F4F16C0882311F096E949
:104F000011C0772321F09EE8872F762F05C06623F6
:104F100071F096E8862F70E060E02AF09A95660FAF
:104F2000771F881FDAF7880F9695879597F9089568
:104F3000990F0008550FAA0BE0E8FEEF16161706AA
:104F4000E807F907C0F012161306E407F50798F012
:104F5000621B730B840B950B39F40A2661F0232B2B
:104F6000242B252B21F408950A2609F4A140A695A7
:104F70008FEF811D811D08950E94CF270C9440283A
:104F80000E94322838F00E94392820F0952311F031
:104F90000C9429280C942F2811240C9474280E9416
:104FA000512870F3959FC1F3950F50E0551F629FF4
:104FB000F001729FBB27F00DB11D639FAA27F00D72
:104FC000B11DAA1F649F6627B00DA11D661F829F99
:104FD0002227B00DA11D621F739FB00DA11D621F7E
:104FE000839FA00D611D221F749F3327A00D611D9B
:104FF000231F849F600D211D822F762F6A2F11247D
:105000009F5750409AF0F1F088234AF0EE0FFF1FAF
:10501000BB1F661F771F881F91505040A9F79E3F06
:10502000510580F00C9429280C9474285F3FE4F318
:10503000983ED4F3869577956795B795F795E7955C
:105040009F5FC1F7FE2B880F911D9695879597F965
:10505000089597F99F6780E870E060E008959FEFFA
:1050600080EC089500240A941616170618060906FF
:10507000089500240A9412161306140605060895CE
:10508000092E0394000C11F4882352F0BB0F40F456
:10509000BF2B11F460FF04C06F5F7F4F8F4F9F4F96
:1050A000089557FD9058440F551F59F05F3F71F018
:1050B0004795880F97FB991F61F09F3F79F087957F
:1050C0000895121613061406551FF2CF4695F1DF08
:1050D00008C0161617061806991FF1CF8695710598
:1050E000610508940895E894BB2766277727CB01CC
:1050F00097F908950E94B628A59F900DB49F900D32
:10510000A49F800D911D112408952F923F924F92DC
:105110005F926F927F928F929F92AF92BF92CF9247
:10512000DF92EF92FF920F931F93CF93DF93CDB750
:10513000DEB7CA1BDB0BCDBFDEBF09942A883988D6
:1051400048885F846E847D848C849B84AA84B9841F
:10515000C884DF80EE80FD800C811B81AA81B9812B
:10516000CE0FD11DCDBFDEBFED010895A29FB001CE
:10517000B39FC001A39F700D811D1124911DB29F8B
:10518000700D811D1124911D0895AA1BBB1B51E1B7
:1051900007C0AA1FBB1FA617B70710F0A61BB70BA7
:1051A000881F991F5A95A9F780959095BC01CD014C
:1051B0000895A1E21A2EAA1BBB1BFD010DC0AA1F58
:1051C000BB1FEE1FFF1FA217B307E407F50720F070
:1051D000A21BB30BE40BF50B661F771F881F991FEB
:1051E0001A9469F760957095809590959B01AC0134
:1051F000BD01CF010895052E97FB1EF400940E9477
:10520000122957FD07D00E94D92807FC03D04EF47D
:105210000C94122950954095309521953F4F4F4F52
:105220005F4F089590958095709561957F4F8F4F52
:105230009F4F0895B7FF0C947A280E947A28821B0A
:10524000930B089597FD1094002E083098F00850A5
:10525000232F342F452F562F672F782F892F912DED
:10526000F4CF1594979587957795679557954795BA
:10527000379527950A95AAF71124002D0895002443
:10528000A7FD00942A1730054005500560057005FC
:10529000800590050895EE0FFF1F0590F491E02D15
:1052A00009940F931F93CF93DF938230910510F4ED
:1052B00082E090E0E091C529F091C62930E020E03D
:1052C000B0E0A0E0309799F42115310509F44AC007
:1052D000281B390B24303105D8F58A819B81611553
:1052E000710589F1FB0182839383FE0111C0408126
:1052F00051810281138148175907E0F04817590777
:1053000099F4109761F012960C93129713961C93D0
:105310003296CF01DF91CF911F910F9108950093A5
:10532000C5291093C629F4CF2115310551F0421734
:10533000530738F0A901DB019A01BD01DF01F80133
:10534000C1CFEF01F9CF8093C5299093C629CDCF66
:10535000FE01E20FF31F81939193225031092883BC
:105360003983D7CF2091C3293091C429232B41F40D
:1053700020912528309126282093C3293093C429D1
:1053800020912328309124282115310541F42DB78F
:105390003EB74091272850912828241B350BE091D7
:1053A000C329F091C429E217F307A0F42E1B3F0B89
:1053B0002817390778F0AC014E5F5F4F2417350787
:1053C00048F04E0F5F1F4093C3295093C429819327
:1053D00091939FCFF0E0E0E09CCFCF93DF930097D5
:1053E000E9F0FC01329712821382A091C529B09195
:1053F000C629ED0130E020E01097A1F42081318131
:10540000820F931F2091C3293091C429281739078F
:1054100009F061C0E093C329F093C429DF91CF91D3
:105420000895EA01CE17DF07E8F54A815B819E0106
:1054300041155105B1F7E901EA83FB83499159917F
:10544000C40FD51FEC17FD0761F48081918102968E
:10545000840F951FE90188839983828193818A83D0
:105460009B83F0E0E0E012968D919C91139700975A
:10547000B9F52D913C911197CD010296820F931FA2
:105480002091C3293091C4292817390739F630975C
:1054900051F51092C5291092C629A093C329B09343
:1054A000C429BCCFC283D38340815181840F951F0F
:1054B000C817D90761F44E5F5F4F88819981480F03
:1054C000591F408351838A819B8182839383211555
:1054D000310509F0B0CFE093C529F093C6299ECFDE
:1054E000FD01DC01C0CF12821382D7CFB0E0A0E073
:1054F000ECE7FAE20C9487288C01009751F4CB0179
:105500000E9451298C01C801CDB7DEB7E0E10C94AF
:10551000A028FC01E60FF71F9C0122503109E21779
:10552000F30708F49DC0D901CD91DC911197C617FE
:10553000D70798F0C530D10530F3CE010497861710
:10554000970708F3C61BD70B2297C193D1936D938E
:105550007C93CF010E94ED29D6CF5B01AC1ABD0A26
:105560004C018C0E9D1EA091C529B091C629512CCD
:10557000412CF12CE12C109731F58091C3299091A9
:10558000C4298815990509F05CC04616570608F02D
:1055900058C08091232890912428009741F48DB71A
:1055A0009EB74091272850912828841B950BE81717
:1055B000F90708F055C0E093C329F093C429F90115
:1055C00060837183A0CF8D919C91119712966C90FE
:1055D000129713967C901397A815B90559F56C018D
:1055E00042E0C40ED11CCA14DB0420F1AC014A19FC
:1055F0005B09DA011296159780F06282738240830C
:105600005183D9016D937C93E114F10471F0D701BA
:105610001296ED93FC93139776CF22968C0F9D1FD5
:10562000F90180839183F301EFCFE093C529F093D3
:10563000C62969CF4816590608F42C017D01D3010B
:105640009ACFCB010E9451297C01009749F0AE010D
:10565000B8010E94402BC8010E94ED29870153CF59
:1056600010E000E050CFFB01DC0104C08D910190FF
:10567000801921F441505040C8F7881B990B0895B8
:10568000FB01DC0102C001900D9241505040D8F75F
:10569000089511E0CBE9D1E004C0FE010E944B293E
:0C56A0002196CC39D107C9F7F894FFCF50
:1056AC0000000000750B1011B71100000003000181
:1056BC0002000001010000000000000000000000DA
:1056CC0000000000000000000000000000000000CE
:1056DC00000000050400050602040103000100019E
:1056EC000200010203040502030305040605040677
:1056FC00070307000102020300010706020200056E
:10570C000201050004010104040403030303030361
:10571C000000020000030101000001020202020568
:10572C0005050503052010012040041002080102A4
:10573C000102040102040810200408082010402073
:10574C00104080088001020404080102804000001F
:10575C0000009002DA04F501FC0226020402180291
:10576C006C0BF00332020705000000006A060E11F4
:10577C00E1018B066B06BE076D07AE12BA060E086A
:10578C00080805120008000000007E162216090504
:10579C00000000009B0C000000005106181F67065B
:1057AC004D067C1939195F19AB1EB71F34193E1DF4
:1057BC00C41C45063E1E861BD11D211B651C4E06B6
:1057CC00B51A911A2F2F22225C5C6208660C6E0AA5
:1057DC00720D7409000D0A00747275650066616CB7
:1057EC007365006E756C6C004E6F20536F636B6548
:1057FC007420617661696C61626C6500436F6E6EDA
:10580C00656374696E6720746F2053534944203A62
:10581C00200052464944206C697374656E696E674A
:10582C002E2E2E007B2272666964223A20220022E0
:10583C007D002F6170692F73747564656E74732F9E
:10584C00726669642F737461747573004661696C58
:10585C00656420746F20636F6E6E65637420746F63
:10586C0020746865204150490053756363657373F8
:10587C0066756C6C7920636F6E6E656374656420FD
:10588C00746F2074686520415049005055542000B5
:10589C0020485454502F312E3100486F73743A20E5
:1058AC003139322E3136382E3130372E31393900EC
:1058BC00436F6E74656E742D547970653A20617007
:1058CC00706C69636174696F6E2F6A736F6E0043DD
:1058DC006F6E74656E742D4C656E6774683A20003B
:1058EC00436F6E6E656374696F6E3A20636C6F7391
:1058FC0065004461746120737563636573736675C9
:10590C006C6C792073656E64004167726565005735
:05591C00726F6E6700D0
:10592100050A070024F40074657374646574657373
:1059310074005465737432436F6E6E6578696F6E6F
:0A59410000B0960000C729800000A6
:0400000300000200F7
:00000001FF
